:10000000FC0F002025040000150400001904000066
:1000100000000000000000000000000000000000E0
:100020000000000000000000000000001D040000AF
:100030000000000000000000210400001106000084
:1000400010B5064C2378002B07D1054B002B02D0AE
:10005000044800E000BF0123237010BD58000020B9
:1000600000000000A013000008B5084B002B03D0CF
:100070000748084900E000BF07480368002B03D089
:10008000064B002B00D0984708BDC046000000007A
:10009000A01300005C0000205400002000000000BD
:1000A000024B80229202DA617047C0460044004150
:1000B00070B50368041C988B1A1C0821FF32084293
:1000C00026D0802099839872112353704021144BBD
:1000D000917150715E68134DC0202E40800506431B
:1000E0005E605E693540284358610F4818600F48CC
:1000F00018615D680E4828408025AD02284358608D
:100100005868800B8003586000235171237105E00B
:10011000137ADA0602D5201C00F0B2FA207970BDFD
:1001200090010020FFFFFF8F9000002010010020B1
:10013000FF3F00F0002303714371044B01608360B3
:100140000B78022213430B707047C046B1000000C9
:1001500038B5364B2021DA6901200A43DA61344B85
:1001600006241A7802431A70324B0F2219789143F1
:1001700019701978214319702F490C7820430870A1
:1001800019780A401A701A7860210A431A702B4BAA
:100190002B4A5A805A7852B2002AFBDB294B0121A4
:1001A0001A780A431A709A78D107FCD42648026854
:1001B000510B1F221140914200D1052111408C01A9
:1001C0001D8D22492940214319850468A10C0A404C
:1001D0001F2A00D11D221C8D1F210A408C4322435F
:1001E0001A8502680721D20D0A408A4200D10322F3
:1001F0000A40188D1103164A02400A431A851978DD
:100200007F220A401A701A78042112480A431A7091
:1002100058621A890C218A431A811A8901218A435A
:100220001A810021802200F04CFF38BD00040040FC
:10023000584400413C44004159440041000C0040F6
:100240000641000000500041246080003FF8FFFF9D
:10025000FF8FFFFF90010020F7B5141C1F4A5F01BC
:1002600001971D1CD319061C5869271C4000400F1C
:1002700003301033C74006D00F1C80225968120685
:100280000A435A6009E02F1C7B1E9F41144BBF019B
:10029000FF18381C221C00F00BFF01990F4808358D
:1002A00042181761131C5269A104920B890C920326
:1002B0000A435A6159690B4A0A405A616B01F318A3
:1002C0000222DA715979802252420A435A716B0133
:1002D000F318DB799A07FAD5201CFEBD90010020A7
:1002E00010010020FF3F00F0F8B51A4E051C3378CE
:1002F000141C002B12D1184B184A1A645A6C920B1A
:1003000092035A64586C164A02405A64A2235B0056
:10031000EA5C40200243EA54012333704827FF3748
:10032000EA5D0123134012D00B4B5A6C9204920CDD
:10033000A24202D25C6CA404A40C081C221C074933
:1003400000F0B6FE0123EB550023337000E01C1CC7
:10035000201CF8BD7400002090010020D000002077
:10036000FF3F00F0FF3083792022002900D11022C6
:100370001343837170470000084BFF305A69920B9A
:1003800092035A6102230372827980235B421343F2
:100390008371037A9A07FCD57047C046900100200C
:1003A00080235B421943C9B28172704770B5A023A4
:1003B00003225B00C254134B134A5C6CC0211440EF
:1003C00089050C4346255C64FF35402444550F4D98
:1003D00030261D6490256D0046555D6B1540294300
:1003E000922559636D0080214155094D1D63B0254B
:1003F0006D0044555C6F22405A67B2235B00C154C4
:1004000070BDC04690010020FFFFFF8FD00000208C
:10041000500100200EBEFEE70DBEFEE705BEFEE762
:1004200002BEFEE70E4A0F4838B5824204D10E4A9A
:100430000E4B93420ED10AE00D4C9442F7D00023AC
:10044000D1188842F3D9E55804330D60F8E700F07D
:100450009BF804E09342FAD2002102C3FAE7FEE7D8
:1004600000000020580000209002002058000020CA
:10047000A413000030B52D4B1E215A680F208A436B
:1004800002210A432A495A600A6A2A4B13400B6226
:10049000294B5A6882435A605A78274852B2002A38
:1004A000FADB446883225202224342605A7852B2F5
:1004B000002AFBDB214A1068800E3F2800D11F2054
:1004C0001F4A204C12689205920DA24200D11E4A8A
:1004D000800210438A8C8024A2438A84CC68144A08
:1004E000E506FBD51949D1629121490090629184BA
:1004F0005A883F218A435A8059888022D2010A4370
:100500005A805A680F218A4301210A435A605A7857
:10051000094952B2002AFADB48680D4A02434A6090
:100520005A7852B2002AFBDB30BDC0460040004181
:1005300000080040FFFCFFFF000C0040246080002A
:1005400028608000FF030000FF01000080BB000066
:10055000000701000A4B0B4A9A60802212055A617B
:10056000802252055A61802252015A618022520231
:100570009A61802292029A618022D2029A61704727
:10058000004400410030FF1810B5FFF773FFFFF77C
:10059000E1FF62B600F040F8164B80229202164945
:1005A0009A6008220A601549041C0A60802212051C
:1005B0009A609A61124B134AC0215A60124A090686
:1005C000106A0002000A0143116200229A600722A9
:1005D0001A60A368201C98470C4B002801D0012208
:1005E0001A701B78002BF4D0002000F079FA00F08C
:1005F000CFFAFCE7004400418844004198440041A0
:1006000010E000E0E703000000ED00E075000020CE
:1006100008B5FFF745FD08BD10B5054B054C236037
:10062000FFF796FD201C2168FFF784FD201C10BDFC
:10063000005000411002002070B5051CC0B0081C1D
:10064000161C0C1C00F045FD40006A4603230230D6
:100650005370107076080123E218013A11785A009D
:10066000002906D1281C69460023FFF7F5FD40B09C
:1006700070BDB342F6DA684681520133ECE7000000
:10068000F7B5BA4A04681378B949271CFF37051C27
:10069000102038720B705378B648B74E03709378B9
:1006A0003380D178338809020B4333801179B34BFF
:1006B0001980517918880902084318809079B04947
:1006C0000880D2790888120202430A8040227A7197
:1006D000A84F3A78A64F120238780F1C0243A94857
:1006E0008446181C624500D1C2E020DC802149000C
:1006F0008A4200D16EE109DC812A00D192E0822A8F
:1007000000D195E0802A00D064E18BE081235B007A
:100710009A4200D1CFE000DA58E1C0239B009A4210
:1007200000D157E1984B9A4200D14FE152E190231A
:100730001B019A4269D015DCD023DB009A4222D0FB
:1007400088231B019A4269D0A023DB009A4200D083
:1007500040E1201CFFF710FE3188286889B2FFF7BE
:100760001FFE3BE1894B9A4200D12FE100DC31E1D1
:10077000874B9A4200D11DE1864B9A4200D029E175
:1007800033886B7122E133881B0A012B08D10B8857
:1007900012222868934201D80A8892B27E4911E158
:1007A00033881B0A022B08D10B8843222868934206
:1007B00001D80A8892B2794904E133881B0A032BD5
:1007C00000D007E13388DBB2012B17D0002B07D014
:1007D000022B00D0FEE00A882868D2B2704911E0EE
:1007E000042201A86F4900F063FC3B8804222868BA
:1007F000934201D83A8892B201A9E3E00A882868B6
:100800006949D2B2FFF718FFE8E03388201C2B714A
:10081000FFF7B2FD201CFFF7C9FDDFE0291C01C96D
:100820000122CFE0614900230B8028680222CAE040
:100830005E4900220A801888502210405C4A1070DD
:100840001E880F20304018801888032800D9C1E086
:1008500012781B8808335B01E418A379002A01D0C1
:100860009B0600E0DB06DB0F0B8028680222A9E074
:1008700019887F2291434E4AC9B2117018880F21FE
:10088000014019803188002900D0A3E0198800298F
:1008900000D19FE01988032900D99BE012781B88BA
:1008A00008335B01E318002A02D020225A718DE040
:1008B000102159718AE002887F239A433C4BD2B2BF
:1008C0001A7001880F220A4002803288002A00D064
:1008D00080E00288002A00D17CE00288032A00D947
:1008E00078E01B78002B1FD0038808335B01E318E6
:1008F0009B799A066AD50388202208335B01E318A6
:100900001A71038808335B01E318DB795F065DD554
:100910000388402208335B01E318DA71038802225E
:1009200008335B01E3181EE0038808335B01E3181A
:100930009B79D9064AD50388102208335B01E31856
:100940001A71038808335B01E318DB799A063DD5F9
:100950000388202208335B01E318DA71038801223F
:1009600008335B01E3181A7130E0C04690000020A4
:10097000770000207C0000207E0000208000002006
:100980007A00002002030000010300002120000083
:10099000A121000021220000101100000000002011
:1009A00004110000F8100000FC1000007800002086
:1009B000760000200B8808222868934201D80A8814
:1009C00092B207490023FFF747FC07E0201CFFF71E
:1009D000D3FC03E0201C0121FFF7C4FCF7BDC04697
:1009E0004400002007B5054B0122019001A91868B9
:1009F000131CFFF731FC01200EBDC0461002002081
:100A000013B5054B6C4607341868211C0122FFF70B
:100A10006BFC207816BDC0461002002010B5074CB4
:100A2000201CFFF745FB031C0020834205D02268F1
:100A30004823FF33D05C0123184010BD1002002072
:100A400010B5054A0C1C031C191C10680123221C3C
:100A5000FFF702FC201C10BD1002002070B5084CEE
:100A6000061C201C0D1CFFF723FB0023984205D019
:100A70002068311C2A1CFFF737FC031C181C70BDB2
:100A800010020020F8B50C4C051C201C0E1CFFF7B2
:100A90000FFB0023271C341C98420AD0002C07D0DF
:100AA000291C221C3868FFF71FFC241A2D18F5E7B3
:100AB000331C181CF8BDC0461002002008B5031CEA
:100AC000081C111C9847044B802212055A61034BE5
:100AD00064221A8008BDC046004400418600002000
:100AE000002802D1014A024B1A60704774110000BD
:100AF0008002002030B50A1C1C4985B00978031C0F
:100B000000292AD0042A01D1006804E0022A01D178
:100B1000008800E00078520004A98B180B3B9C1A57
:100B2000A3420BD00F210140092902D830252943C7
:100B300000E0373119700009013BF1E701A93023CA
:100B40000B7078234B700A208B1898700D20D8708A
:100B5000074B04321B68D86803E005490968C86878
:100B6000191CFFF7ABFF05B030BDC0468200002066
:100B70008002002072B6EFF30883044A1360036812
:100B800083F30888436818477047C04684020020F2
:100B9000F0B591B008A9CE4A0B1C31CA31C351CA75
:100BA00051C360CA60C3CB4BCB489A687A255203C5
:100BB000520F92005258C94902609C68A4B2624325
:100BC0000C60C74900240A60C64A1460C64C2570F0
:100BD000C64CC74D2368281C1B6940219847002834
:100BE00005D0C44B08221A60C34B64221A80C34B41
:100BF00000221860C24B1D60C24BC24DBF4F1A602D
:100C00002A683B689A42E3D2BD4B1B681A78FF2AD8
:100C100000D120E2232A00D0F7E1BB4E3378002B2D
:100C200006D0B24BB9491B680222D868FFF746FFCD
:100C3000AD4B1B78532B3FD13B682A6893421ED99A
:100C4000AF4801322A609A1AB14B01681B68013122
:100C50000160B04E9A4201D2326000E03360A14898
:100C600032680068049000F023FA336829685A1843
:100C70002A60A34A1668F1181160A74A13702B68FE
:100C8000013B2B609E4B1A68013A1A60A24BA04AA6
:100C90001B7811688B420DD222689248C91A0068ED
:100CA00092699047002805D0924B08221A60924B17
:100CB00064221A80C04696E1522B0ED18948944A8C
:100CC0002368006811685B6903909847934B802202
:100CD00012055A616422924B0DE04F2B05D1814BD6
:100CE0008B4A1B6812681A707DE1482B05D17D4B39
:100CF000874A1B6812681A8075E1572B05D1794B1A
:100D0000834A1B6812681A606DE16F2B03D1754B23
:100D10000121186807E0682B08D1724B7C481B68DA
:100D200002211B880360FFF7E5FE5CE1772B06D10B
:100D30006C4B77481B6804211B680360F3E7472B63
:100D400013D1734B1868FFF715FF764B1B6883F3BD
:100D5000088862B6744B1B78002B00D143E1634BCB
:100D600006201B681B6898473DE1542B04D10123E2
:100D700033705E4B1B6864E04E2B0CD13378002B34
:100D800006D15A4B61491B680222D868FFF796FECC
:100D90000023337027E1562B57D123686349D86865
:100DA0000122FFF78BFE23686149D8680322FFF711
:100DB00085FE604D2368291CD8680122FFF77EFE5E
:100DC00023685D49D8680D22FFF778FE2368291C47
:100DD000D8680122FFF772FE494F4A4D5749002358
:100DE00039602B603A1C281C13685E1C16601B7847
:100DF0000593002B03D0036801330360F4E73B4EF7
:100E00002A683368D868FFF759FE33684949D868BB
:100E10000122FFF753FE0599296049493960384A94
:100E20001368581C10601B78002B04D0354B1A68CF
:100E300001321A60F3E733682A68D868FFF73EFE8C
:100E40003368D86831490222CBE0314A582B17D198
:100E5000214E234D366813682A68B10093420AD2A6
:100E60001C4D5808E861374828801A4D287DC60770
:100E7000FBD55B18F2E71D4B33491B68D868AFE020
:100E8000592B00D07DE01268164B3049002A02D160
:100E90001B680B6070E00F4D086819686B680D4E99
:100EA0008025AB4392087360002A65D0284B094D1A
:100EB0002B80084E337DDD07FBD50023064D2D68C2
:100EC0000195AD08AB4247D3224D024E35804AE032
:100ED00024110000004000413802002030020020B0
:100EE0002C0200207C02002028020020800200202A
:100EF0003C02002094440041840000202002002095
:100F0000240200203402002082000020681100002A
:100F1000880200208C0200201C02002000440041B6
:100F200086000020840200208C0000204411000074
:100F30006D110000461100009011000048110000E2
:100F40005411000002A5FFFF5D1100008800002081
:100F500044A5FFFF04A5FFFF9342B5D09D0046596D
:100F600001334E51AAE7404E357DEE07FBD59D007B
:100F700049194019D21A97E73C4B3D491B68D8687C
:100F80002EE05A2B2FD13B4B17681D680026EF1916
:100F9000BD4206D02878311C00F07EF80135061CD1
:100FA000F6E7324B34491B680122D868FFF786FD0B
:100FB00007230F223240111C36093031092A00DD87
:100FC00007311820C0186A468154013BF1D22368CA
:100FD00006A9D8680822FFF771FD23682749D86859
:100FE0000322FFF76BFD264B7A221A70254B002255
:100FF0001A60254B1B7893422DD01C4B23491B684C
:101000000122D868FFF75AFD25E0111C3039C8B21B
:101010001C4B092804D81D682A01114319601AE0E5
:10102000111C4139052903D81E68373A310106E001
:10103000111C6139052904D81868573A01010A437F
:1010400008E02C2A03D10B4A1968116001E00C4911
:101050000A7000221A600E4B1A6801321A600D4B9A
:101060001A680132C9E5C0460040004180020020F4
:10107000611100007C020020651100006711000072
:101080002802002088020020820000206B1100004E
:1010900034020020240200200B0A5840034B400079
:1010A000C05A0902484080B27047C0469E110000F5
:1010B00010B50023934203D0CC5CC4540133F9E74C
:1010C00010BD031C8218934202D019700133FAE755
:1010D00070470023C25C0133002AFBD1581E7047C1
:1010E000F8B5C046F8BC08BC9E467047F8B5C04687
:1010F000F8BC08BC9E467047040309044469736F3A
:1011000062657900426164676520323031390000E0
:10111000120100020200004041234D0000020102C2
:101120000001000008000000100000002000000086
:1011300040000000800000000001000000020000EC
:1011400000040000760020004D6179203330203209
:101150003031380031393A33313A343900580A0DD8
:1011600000590A0D005A00230A0D003E00322E30AD
:1011700000000000E5090000010A00001D0A00004F
:10118000410A00005D0A0000410A0000850A0000D3
:101190005B41726475696E6F3A58595A5D00000080
:1011A0002110422063308440A550C660E77008815A
:1011B00029914AA16BB18CC1ADD1CEE1EFF13112D1
:1011C000100273325222B5529442F772D6623993AA
:1011D00018837BB35AA3BDD39CC3FFF3DEE3622421
:1011E000433420040114E664C774A44485546AA5FA
:1011F0004BB528850995EEE5CFF5ACC58DD55336B1
:10120000722611163006D776F6669556B4465BB749
:101210007AA719973887DFF7FEE79DD7BCC7C44880
:10122000E5588668A7784008611802282338CCC999
:10123000EDD98EE9AFF9488969990AA92BB9F55A10
:10124000D44AB77A966A711A500A333A122AFDDBE9
:10125000DCCBBFFB9EEB799B588B3BBB1AABA66CE0
:10126000877CE44CC55C222C033C600C411CAEED39
:101270008FFDECCDCDDD2AAD0BBD688D499D977EF0
:10128000B66ED55EF44E133E322E511E700E9FFF89
:10129000BEEFDDDFFCCF1BBF3AAF599F788F88913F
:1012A000A981CAB1EBA10CD12DC14EF16FE1801023
:1012B000A100C230E3200450254046706760B98326
:1012C0009893FBA3DAB33DC31CD37FE35EF3B10273
:1012D0009012F322D2323542145277625672EAB536
:1012E000CBA5A89589856EF54FE52CD50DC5E234C3
:1012F000C324A01481046674476424540544DBA706
:10130000FAB79987B8975FE77EF71DC73CD7D32612
:10131000F2369106B01657667676154634564CD995
:101320006DC90EF92FE9C899E9898AB9ABA9445862
:10133000654806782768C018E1088238A3287DCB65
:101340005CDB3FEB1EFBF98BD89BBBAB9ABB754AB2
:10135000545A376A167AF10AD01AB32A923A2EFDF5
:101360000FED6CDD4DCDAABD8BADE89DC98D267C02
:10137000076C645C454CA23C832CE01CC10C1FEF45
:101380003EFF5DCF7CDF9BAFBABFD98FF89F176E52
:10139000367E554E745E932EB23ED10EF01E000086
:0413A0000000000049
:1013A4000902430002010080320904000001020224
:1013B4000000052400100104240200052406000195
:1013C4000524010001070583030800FF0904010047
:1013D400020A00000007058102400000070502021E
:1013E4004000000000C20100000008006900000085
:0813F4004100000000000000B0
:0400000300000425D0
:00000001FF
