:10040000FC0F002029080000190800001D0800004A
:1004100000000000000000000000000000000000DC
:1004200000000000000000000000000021080000A3
:100430000000000000000000250800008D0A0000F8
:1004400010B5064C2378002B07D1054B002B02D0AA
:10045000044800E000BF0123237010BD58000020B5
:10046000000000000410000008B5084B002B03D06A
:100470000748084900E000BF07480368002B03D085
:10048000064B002B00D0984708BDC0460000000076
:10049000041000005C000020540000200000000058
:1004A00010B5C3699C07FCD403680224A34303600E
:1004B000C46901231C42FBD1046823430360036821
:1004C000DC07FCD4C46901231C42FBD1C469DC40B5
:1004D0001C42F7D1084B1A430260C3695A07FCD487
:1004E000C0239B0243608181C3699C07FCD40368DD
:1004F00002221343036010BD04000040027E01236A
:100500005107FBD5428B1A4207D1428BDA401A427F
:1005100003D1428B92081A4202D0034B01221A7077
:10052000008DC0B27047C0467400002070B50368EB
:10053000041C988B1A1C0821FF32084226D0802008
:1005400099839872112353704021154B917150710A
:100550005E68144DC0202E40800506435E605E69D3
:1005600035402843586110481860104818615D688C
:100570000F4828408025AD02284358605868800BFA
:100580008003586000235171237107E0137AD90664
:1005900003D5201C00F0B0FA00E0137A207970BD7A
:1005A0008C010020FFFFFF8F8C0000200C01002039
:1005B000FF3F00F0002303714371044B016083602F
:1005C0000B78022213430B707047C0462D050000C4
:1005D00038B5364B2021DA6901200A43DA61344B01
:1005E00006241A7802431A70324B0F22197891436D
:1005F00019701978214319702F490C78204308701D
:1006000019780A401A701A7860210A431A702B4B25
:100610002B4A5A805A7852B2002AFBDB294B01211F
:100620001A780A431A709A78D107FCD426480268CF
:10063000510B1F221140914200D1052111408C0124
:100640001D8D22492940214319850468A10C0A40C7
:100650001F2A00D11D221C8D1F210A408C432243DA
:100660001A8502680721D20D0A408A4200D103226E
:100670000A40188D1103164A02400A431A85197858
:100680007F220A401A701A78042112480A431A700D
:1006900058621A890C218A431A811A8901218A43D6
:1006A0001A810021802200F06CFC38BD000400405B
:1006B000584400413C44004159440041000C004072
:1006C0000641000000500041246080003FF8FFFF19
:1006D000FF8FFFFF8C010020F7B5141C1F4A5F013C
:1006E00001971D1CD319061C5869271C4000400F98
:1006F00003301033C74006D00F1C80225968120601
:100700000A435A6009E02F1C7B1E9F41144BBF0116
:10071000FF18381C221C00F02BFC01990F480835EB
:1007200042181761131C5269A104920B890C9203A1
:100730000A435A6159690B4A0A405A616B01F3181E
:100740000222DA715979802252420A435A716B01AE
:10075000F318DB799A07FAD5201CFEBD8C01002026
:100760000C010020FF3F00F0FF3083792022002998
:1007700000D110221343837170470000084BFF30F3
:100780005A69920B92035A61022303728279802381
:100790005B4213438371037A9A07FCD57047C046C6
:1007A0008C01002080235B421943C9B281727047DB
:1007B00070B5A02303225B00C254134B134A5C6C38
:1007C000C021144089050C4346255C64FF35402454
:1007D00044550F4D30261D6490256D0046555D6BC8
:1007E00015402943922559636D0080214155094DDB
:1007F0001D63B0256D0044555C6F22405A67B223DB
:100800005B00C15470BDC0468C010020FFFFFF8F0C
:10081000CC0000204C0100200EBEFEE70DBEFEE71E
:1008200005BEFEE702BEFEE70E4A0F4838B582421B
:1008300004D10E4A0E4B93420ED10AE00D4C944265
:10084000F7D00023D1188842F3D9E55804330D605E
:10085000F8E700F0ABF804E09342FAD2002102C3BB
:10086000FAE7FEE70000002058000020B003002057
:10087000580000200810000030B52D4B1E215A688A
:100880000F208A4302210A432A495A600A6A2A4BE6
:1008900013400B62294B5A6882435A605A782748A2
:1008A00052B2002AFADB4468832252022243426099
:1008B0005A7852B2002AFBDB214A1068800E3F288A
:1008C00000D11F201F4A204C12689205920DA242AF
:1008D00000D11E4A800210438A8C8024A2438A845D
:1008E000CC68144AE506FBD51949D162912149002B
:1008F000906291845A883F218A435A805988802285
:10090000D2010A435A805A680F218A4301210A43BF
:100910005A605A78094952B2002AFADB48680D4AEF
:1009200002434A605A7852B2002AFBDB30BDC0460F
:100930000040004100080040FFFCFFFF000C0040A9
:100940002460800028608000FF030000FF01000099
:1009500080BB000000070100124B134A9A608022FE
:1009600012055A61802252055A61802252019A6111
:10097000802252029A61802292025A618022D2021F
:100980005A61802212035A61802252035A618022E6
:1009900092035A618022D2035A61802212049A6122
:1009A0007047C046004400410030FF18F8B5FFF71B
:1009B00063FFFFF7D1FF62B600F070FA00F068F84D
:1009C000294C80239B02294AA36008231360284AEC
:1009D000061C136080231B05A360264AA361264BD7
:1009E000C0215A60254A0906106A0002000A014324
:1009F000116200229A6007221A60301CB268904788
:100A00001F4B002801D001221A701B78002BF4D054
:100A10007379DA07F1D580231B05A36180235B017D
:100A2000636180235B05A3617379DA0703D48023B4
:100A30005B01A361E1E700F087FA0028F4D0114DD3
:100A40002F6800F089FA2B680F4A0133D0552B60CC
:100A5000402B02D0D35C0A2BE6D180235B0163617B
:100A600000232B60E0E7C046004400418844004179
:100A7000984400410F27000010E000E000ED00E086
:100A80007C000020780000200C020020704700004D
:100A900010B5054B054C2360FFF79AFD201C21681B
:100AA000FFF788FD201C10BD005000419802002077
:100AB00070B5051CC0B0081C161C0C1C00F069FAAF
:100AC00040006A46032302305370107076080123F9
:100AD000E218013A11785A00002906D1281C69460B
:100AE0000023FFF7F9FD40B070BDB342F6DA684667
:100AF00081520133ECE70000F7B5B74A0468137878
:100B0000B649251C061CFF35102028720B7053783F
:100B1000B3488C4603709378B2490B800B88D17828
:100B200009020B43AF490B801179AF4B19805779FC
:100B300019883F02394319809779AC490F80D279DF
:100B40000F88120217430F8000786246177802025E
:100B5000A7483A4384460F1C181C624500D1DCE0CC
:100B600022DC802149008A4200D18DE109DC812A02
:100B700000D1A8E0822A00D1ADE0802A00D083E134
:100B8000A1E0812149008A4200D1EAE040238A4263
:100B900000DA74E1C02189008A4200D175E19549EB
:100BA0008A4200D16BE16FE1902000014023824234
:100BB00000D178E018DCD020C000824226D0882105
:100BC00009018A4200D179E0A021C9008A4200D0FF
:100BD0005AE1201C6B71FFF7D1FD824A3068118801
:100BE00089B2FFF7DFFD55E18348824200D146E13B
:100BF00000DC49E18148824200D133E180498A42E8
:100C000000D041E177480288727138E17548028866
:100C1000120A012A09D16B710B88122230689342A3
:100C200001D80A8892B277490DE06E480288120A0C
:100C3000022A0AD16B710B8843223068934201D893
:100C40000A8892B27049002316E166480288120AA7
:100C5000032A00D019E10288D2B2012A19D0002A51
:100C600007D0022A1DD16B710A883068D2B2674959
:100C700014E0042201A8664900F07AF940236B7160
:100C80003B8804223068934201D83A8892B201A985
:100C9000D9E76B710A8830685E49D2B2FFF708FF66
:100CA000F8E06B71F2E04F480288201C32716B71E2
:100CB000FFF764FD201CFFF77BFDEBE06B71311C3F
:100CC00001C90122BFE75449402200230B806A7109
:100CD00030680222D0E0504900220A801888502251
:100CE00010404E4A10701F880F2038401880188816
:100CF000032800D9C8E012781B8808335B01E41888
:100D0000A379002A01D09B0600E0DB06DB0F0B80F5
:100D100040236B713068022295E719887F22914346
:100D20003E4AC9B2117018880F2101402D48198020
:100D30000188002900D0A7E01988002900D1A3E08C
:100D40001988032900D99FE012781B8808335B01BA
:100D5000E318002A02D020225A7181E01021597133
:100D60007EE01A887F239A432C4BD2B21A700188F6
:100D70000F220A401B4902800A88002A00D083E023
:100D80000288002A00D17FE00288032A00D97BE094
:100D90001B78002B44D0038808335B01E3189B7950
:100DA0009A065DD50388202208335B01E3181A7187
:100DB000038808335B01E318DB79590650D50388B3
:100DC000402208335B01E318DA71038802220833FA
:100DD0005B01E31843E0C0468C0000208600002041
:100DE00087000020880000207E0000208400002072
:100DF000020300000103000021200000A1210000E7
:100E000021220000F00F000000000020C90F0000A8
:100E1000B80F0000BC0F00008000002082000020FE
:100E2000038808335B01E3189B79DA0618D5038839
:100E3000102208335B01E3181A71038808335B0141
:100E4000E318DB7999060BD50388202208335B0170
:100E5000E318DA710388012208335B01E3181A7181
:100E600040230CE06B710B8807223068934201D855
:100E70000A8892B208490323FFF72EFC0AE06B713F
:100E8000201CFFF77BFC05E040236B71201C012137
:100E9000FFF76AFCF7BDC0464400002010B51C4BAC
:100EA00001201A78032402431A701A4B0F22197872
:100EB0009143197019782143197017490C78204310
:100EC000087019780A401A701A7830210A431A708B
:100ED000124B04211A6A0A431A62114B114A5A80B2
:100EE0005A7852B2002AFBDB80220F480F49520386
:100EF000FFF7D6FA0E4A002313700E4A13700E4AFB
:100F000013700E4A13700E4A13700E4A137010BD00
:100F1000404400413044004141440041000400404D
:100F2000000C0040144000000008004204C500000E
:100F3000A40200202B030020A5020020A80200200C
:100F40002C03002029030020024B187E4007C00F0D
:100F50007047C0460008004208B5FFF7F5FF0028BB
:100F6000FBD00248FFF7CAFA08BDC046000800429D
:100F700010B50023934203D0CC5CC4540133F9E78D
:100F800010BD031C8218934202D019700133FAE796
:100F900070470023C25C0133002AFBD1581E704702
:100FA000F8B5C046F8BC08BC9E467047F8B5C046C8
:100FB000F8BC08BC9E467047040309044469736F7B
:100FC0006265792032303139007075726B6B6176F1
:100FD0006972697479732073686F756C64206861D5
:100FE0007665206265656E206865726500000000A8
:100FF000120100020200004041234D0000020102E4
:081000000001000000000000E7
:1010080009024300020100803209040000010202C3
:101018000000052400100104240200052406000134
:101028000524010001070583030800FF09040100E6
:10103800020A0000000705810240000007050202BD
:101048004000000000C20100000008006904000020
:0810580041040000000000004B
:0400000300000829C8
:00000001FF
