S02B00002F686F6D652F6B6C696D656E742F64657369676E732F73616D642D66772F53414D4478312D555342CB
S1130000D003002011000000420000004200000064
S11300100C480D490D4A08CA08C18142FBD30C485B
S11300200C49002204C18142FBD300F019F80A49AB
S11300300A480160086880F3088880F309884868E2
S11300408746FEE74300002000000020A4030000D0
S1130050CC010020440000200004000008ED00E072
S1130060F0B583B00820C043364B062119543F2510
S1130070E8430121CA031A503720C04318581042DC
S113008001D003B0F0BD032002022F4E74699443E3
S11300907461C0436122120132502C4A0420029040
S11300A01060002001903083346810273C42FBD05C
S11300B0274C3462274A546827482040AC025588AC
S11300C025400543F5612548308330683842FCD02B
S11300D00320234D234C2C50287840B20028FBDB0E
S11300E01878084318705878084358701B20C04388
S11300F066241C541C48036820241C4304601B48C9
S113010068521B4B197098780842FCD1114800685A
S1130110810C1F242140A401C50925400D4307215A
S11301200903C00A084028431885124858620298F7
S1130130187001981881187802210143197000F091
S11301401BF8FCE7584400410C08004004400041FF
S113015080BB000024608000FF0300002E05000027
S1130160010C0040000721001C0400400640000070
S11301700050004144000020F0B581B0E720C043A6
S11301806A4C225A08210A4221D02152F920C24342
S11301908020A054221F002313702032491EFAD15C
S11301A00322D14311236354637840210B436370CA
S11301B02378034323705E485E4B03611207426158
S11301C05D4B036040324260207808432070E07841
S11301D00125284221D0594E316800291BD0080638
S11301E0800F574808D1490881601321C943554AF3
S11301F0425201782942FCD0316800224E4B9F5A6A
S11302008F52921C402AFAD101782942FCD000F086
S1130210A5F8002030600120E070E1781020014250
S113022063D0E0702078402101432170424E33783E
S1130230F1887088020A7F2B16DC002B2DD0012B4D
S113024057D0212B51D17278012A4AD13E4A3F4BD3
S11302501360002945D008331360A90280014018B7
S11302603649086001B0F0BDA12B25D0812B2FD0D9
S1130270802B3AD17078082837D8C0467844007962
S1130280400087442804320432323E32470060780A
S113029020210143617001B0F0BD7178092926D095
S11302A0052922D100F05AF8B07880210143F920C1
S11302B0C043215401B0F0BD707805281DD0032837
S11302C017D121480068062100F04EF801B0F0BDB6
S11302D07078002809D11D48022100F045F801B0CA
S11302E0F0BD16480068002803D001B0F0BD1849DD
S11302F0086000F033F801B0F0BD13480068001D39
S113030009E0022A0CD0012AC1D1134800F02CF8CC
S113031001B0F0BD0E48012100F026F801B0F0BD97
S11303200C4800F021F801B0F0BDC0460451004172
S113033044000020480100208801002044010020DE
S11303401440004102A50000000000200400002029
S1130350C8010020280000201400002080B50020DF
S1130360014600F001F880BD094A106109480840BF
S11303700321090701435161074802218170027872
S113038080231343037082780A42FCD07047C0462E
S10F039044000020FF3F00000551004124
S10B039CC4FCFF7F0100000016
S11303A4040000200000000002000000000000001F
S11303B40500000012010001FE010040091203209F
S11303C4010100000001000009021B00010100807A
S11303D4320904000000FE0100000921030000406A
S10603E400000111
S9030011EB
